{
  "_format": "hh-sol-artifact-1",
  "contractName": "SwapContract",
  "sourceName": "contracts/SwapContract.sol",
  "abi": [
    {
      "inputs": [],
      "stateMutability": "nonpayable",
      "type": "constructor"
    },
    {
      "anonymous": false,
      "inputs": [
        {
          "indexed": true,
          "internalType": "address",
          "name": "owner",
          "type": "address"
        },
        {
          "indexed": true,
          "internalType": "address",
          "name": "approved",
          "type": "address"
        },
        {
          "indexed": true,
          "internalType": "uint256",
          "name": "tokenId",
          "type": "uint256"
        }
      ],
      "name": "Approval",
      "type": "event"
    },
    {
      "anonymous": false,
      "inputs": [
        {
          "indexed": true,
          "internalType": "address",
          "name": "owner",
          "type": "address"
        },
        {
          "indexed": true,
          "internalType": "address",
          "name": "operator",
          "type": "address"
        },
        {
          "indexed": false,
          "internalType": "bool",
          "name": "approved",
          "type": "bool"
        }
      ],
      "name": "ApprovalForAll",
      "type": "event"
    },
    {
      "anonymous": false,
      "inputs": [
        {
          "indexed": true,
          "internalType": "address",
          "name": "sender",
          "type": "address"
        },
        {
          "indexed": false,
          "internalType": "uint256",
          "name": "swapId",
          "type": "uint256"
        }
      ],
      "name": "CreateSwapContract",
      "type": "event"
    },
    {
      "anonymous": false,
      "inputs": [
        {
          "indexed": true,
          "internalType": "address",
          "name": "sender",
          "type": "address"
        },
        {
          "indexed": true,
          "internalType": "uint256",
          "name": "swapId",
          "type": "uint256"
        },
        {
          "indexed": false,
          "internalType": "string",
          "name": "data",
          "type": "string"
        }
      ],
      "name": "PushDataToSwapContract",
      "type": "event"
    },
    {
      "anonymous": false,
      "inputs": [
        {
          "indexed": true,
          "internalType": "address",
          "name": "from",
          "type": "address"
        },
        {
          "indexed": true,
          "internalType": "address",
          "name": "to",
          "type": "address"
        },
        {
          "indexed": true,
          "internalType": "uint256",
          "name": "tokenId",
          "type": "uint256"
        }
      ],
      "name": "Transfer",
      "type": "event"
    },
    {
      "anonymous": false,
      "inputs": [
        {
          "indexed": true,
          "internalType": "address",
          "name": "sender",
          "type": "address"
        },
        {
          "indexed": false,
          "internalType": "uint256",
          "name": "swapId",
          "type": "uint256"
        },
        {
          "indexed": false,
          "internalType": "uint256",
          "name": "newVersion",
          "type": "uint256"
        }
      ],
      "name": "UpdateSwapContractVersion",
      "type": "event"
    },
    {
      "inputs": [
        {
          "internalType": "address",
          "name": "to",
          "type": "address"
        },
        {
          "internalType": "uint256",
          "name": "tokenId",
          "type": "uint256"
        }
      ],
      "name": "approve",
      "outputs": [],
      "stateMutability": "nonpayable",
      "type": "function"
    },
    {
      "inputs": [
        {
          "internalType": "address",
          "name": "owner",
          "type": "address"
        }
      ],
      "name": "balanceOf",
      "outputs": [
        {
          "internalType": "uint256",
          "name": "",
          "type": "uint256"
        }
      ],
      "stateMutability": "view",
      "type": "function"
    },
    {
      "inputs": [],
      "name": "createSwapContract",
      "outputs": [
        {
          "internalType": "uint256",
          "name": "",
          "type": "uint256"
        }
      ],
      "stateMutability": "nonpayable",
      "type": "function"
    },
    {
      "inputs": [
        {
          "internalType": "uint256",
          "name": "tokenId",
          "type": "uint256"
        }
      ],
      "name": "getApproved",
      "outputs": [
        {
          "internalType": "address",
          "name": "",
          "type": "address"
        }
      ],
      "stateMutability": "view",
      "type": "function"
    },
    {
      "inputs": [
        {
          "internalType": "address",
          "name": "owner",
          "type": "address"
        },
        {
          "internalType": "address",
          "name": "operator",
          "type": "address"
        }
      ],
      "name": "isApprovedForAll",
      "outputs": [
        {
          "internalType": "bool",
          "name": "",
          "type": "bool"
        }
      ],
      "stateMutability": "view",
      "type": "function"
    },
    {
      "inputs": [],
      "name": "name",
      "outputs": [
        {
          "internalType": "string",
          "name": "",
          "type": "string"
        }
      ],
      "stateMutability": "view",
      "type": "function"
    },
    {
      "inputs": [
        {
          "internalType": "uint256",
          "name": "tokenId",
          "type": "uint256"
        }
      ],
      "name": "ownerOf",
      "outputs": [
        {
          "internalType": "address",
          "name": "",
          "type": "address"
        }
      ],
      "stateMutability": "view",
      "type": "function"
    },
    {
      "inputs": [
        {
          "internalType": "uint256",
          "name": "swapId",
          "type": "uint256"
        },
        {
          "internalType": "string",
          "name": "data",
          "type": "string"
        }
      ],
      "name": "pushDataToSwapContract",
      "outputs": [
        {
          "internalType": "uint256",
          "name": "",
          "type": "uint256"
        }
      ],
      "stateMutability": "nonpayable",
      "type": "function"
    },
    {
      "inputs": [
        {
          "internalType": "uint256",
          "name": "swapId",
          "type": "uint256"
        },
        {
          "internalType": "uint256",
          "name": "version",
          "type": "uint256"
        }
      ],
      "name": "retreiveSwapContractByIdVersion",
      "outputs": [
        {
          "internalType": "string",
          "name": "",
          "type": "string"
        }
      ],
      "stateMutability": "view",
      "type": "function"
    },
    {
      "inputs": [
        {
          "internalType": "address",
          "name": "from",
          "type": "address"
        },
        {
          "internalType": "address",
          "name": "to",
          "type": "address"
        },
        {
          "internalType": "uint256",
          "name": "tokenId",
          "type": "uint256"
        }
      ],
      "name": "safeTransferFrom",
      "outputs": [],
      "stateMutability": "nonpayable",
      "type": "function"
    },
    {
      "inputs": [
        {
          "internalType": "address",
          "name": "from",
          "type": "address"
        },
        {
          "internalType": "address",
          "name": "to",
          "type": "address"
        },
        {
          "internalType": "uint256",
          "name": "tokenId",
          "type": "uint256"
        },
        {
          "internalType": "bytes",
          "name": "data",
          "type": "bytes"
        }
      ],
      "name": "safeTransferFrom",
      "outputs": [],
      "stateMutability": "nonpayable",
      "type": "function"
    },
    {
      "inputs": [
        {
          "internalType": "address",
          "name": "operator",
          "type": "address"
        },
        {
          "internalType": "bool",
          "name": "approved",
          "type": "bool"
        }
      ],
      "name": "setApprovalForAll",
      "outputs": [],
      "stateMutability": "nonpayable",
      "type": "function"
    },
    {
      "inputs": [
        {
          "internalType": "bytes4",
          "name": "interfaceId",
          "type": "bytes4"
        }
      ],
      "name": "supportsInterface",
      "outputs": [
        {
          "internalType": "bool",
          "name": "",
          "type": "bool"
        }
      ],
      "stateMutability": "view",
      "type": "function"
    },
    {
      "inputs": [],
      "name": "swapContractCount",
      "outputs": [
        {
          "internalType": "uint256",
          "name": "",
          "type": "uint256"
        }
      ],
      "stateMutability": "view",
      "type": "function"
    },
    {
      "inputs": [
        {
          "internalType": "uint256",
          "name": "",
          "type": "uint256"
        }
      ],
      "name": "swapContractVersion",
      "outputs": [
        {
          "internalType": "uint256",
          "name": "",
          "type": "uint256"
        }
      ],
      "stateMutability": "view",
      "type": "function"
    },
    {
      "inputs": [
        {
          "internalType": "uint256",
          "name": "swapId",
          "type": "uint256"
        }
      ],
      "name": "swapContractVersions",
      "outputs": [
        {
          "internalType": "uint256",
          "name": "",
          "type": "uint256"
        }
      ],
      "stateMutability": "view",
      "type": "function"
    },
    {
      "inputs": [
        {
          "internalType": "uint256",
          "name": "",
          "type": "uint256"
        },
        {
          "internalType": "uint256",
          "name": "",
          "type": "uint256"
        }
      ],
      "name": "swapContracts",
      "outputs": [
        {
          "internalType": "string",
          "name": "",
          "type": "string"
        }
      ],
      "stateMutability": "view",
      "type": "function"
    },
    {
      "inputs": [],
      "name": "symbol",
      "outputs": [
        {
          "internalType": "string",
          "name": "",
          "type": "string"
        }
      ],
      "stateMutability": "view",
      "type": "function"
    },
    {
      "inputs": [
        {
          "internalType": "uint256",
          "name": "tokenId",
          "type": "uint256"
        }
      ],
      "name": "tokenURI",
      "outputs": [
        {
          "internalType": "string",
          "name": "",
          "type": "string"
        }
      ],
      "stateMutability": "view",
      "type": "function"
    },
    {
      "inputs": [
        {
          "internalType": "address",
          "name": "from",
          "type": "address"
        },
        {
          "internalType": "address",
          "name": "to",
          "type": "address"
        },
        {
          "internalType": "uint256",
          "name": "tokenId",
          "type": "uint256"
        }
      ],
      "name": "transferFrom",
      "outputs": [],
      "stateMutability": "nonpayable",
      "type": "function"
    }
  ],
  "bytecode": "0x60806040523480156200001157600080fd5b506040518060400160405280600c81526020017f53776170436f6e747261637400000000000000000000000000000000000000008152506040518060400160405280600c81526020017f73776170436f6e7472616374000000000000000000000000000000000000000081525081600090816200008f91906200048b565b508060019081620000a191906200048b565b505050620000f06040518060400160405280601c81526020017f4465706c6f7965642073776170436f6e747261637420746f203a3a2000000000815250306200014260201b62000f681760201c565b6200013c6040518060400160405280601c81526020017f4465706c6f7965642073776170436f6e7472616374206279203a3a2000000000815250336200014260201b62000f681760201c565b6200067a565b620001e482826040516024016200015b92919062000646565b6040516020818303038152906040527f319af333000000000000000000000000000000000000000000000000000000007bffffffffffffffffffffffffffffffffffffffffffffffffffffffff19166020820180517bffffffffffffffffffffffffffffffffffffffffffffffffffffffff8381831617835250505050620001e860201b60201c565b5050565b60008151905060006a636f6e736f6c652e6c6f679050602083016000808483855afa5050505050565b600081519050919050565b7f4e487b7100000000000000000000000000000000000000000000000000000000600052604160045260246000fd5b7f4e487b7100000000000000000000000000000000000000000000000000000000600052602260045260246000fd5b600060028204905060018216806200029357607f821691505b602082108103620002a957620002a86200024b565b5b50919050565b60008190508160005260206000209050919050565b60006020601f8301049050919050565b600082821b905092915050565b600060088302620003137fffffffffffffffffffffffffffffffffffffffffffffffffffffffffffffffff82620002d4565b6200031f8683620002d4565b95508019841693508086168417925050509392505050565b6000819050919050565b6000819050919050565b60006200036c62000366620003608462000337565b62000341565b62000337565b9050919050565b6000819050919050565b62000388836200034b565b620003a0620003978262000373565b848454620002e1565b825550505050565b600090565b620003b7620003a8565b620003c48184846200037d565b505050565b5b81811015620003ec57620003e0600082620003ad565b600181019050620003ca565b5050565b601f8211156200043b576200040581620002af565b6200041084620002c4565b8101602085101562000420578190505b620004386200042f85620002c4565b830182620003c9565b50505b505050565b600082821c905092915050565b6000620004606000198460080262000440565b1980831691505092915050565b60006200047b83836200044d565b9150826002028217905092915050565b620004968262000211565b67ffffffffffffffff811115620004b257620004b16200021c565b5b620004be82546200027a565b620004cb828285620003f0565b600060209050601f831160018114620005035760008415620004ee578287015190505b620004fa85826200046d565b8655506200056a565b601f1984166200051386620002af565b60005b828110156200053d5784890151825560018201915060208501945060208101905062000516565b868310156200055d578489015162000559601f8916826200044d565b8355505b6001600288020188555050505b505050505050565b600082825260208201905092915050565b60005b83811015620005a357808201518184015260208101905062000586565b60008484015250505050565b6000601f19601f8301169050919050565b6000620005cd8262000211565b620005d9818562000572565b9350620005eb81856020860162000583565b620005f681620005af565b840191505092915050565b600073ffffffffffffffffffffffffffffffffffffffff82169050919050565b60006200062e8262000601565b9050919050565b620006408162000621565b82525050565b60006040820190508181036000830152620006628185620005c0565b905062000673602083018462000635565b9392505050565b6130f7806200068a6000396000f3fe608060405234801561001057600080fd5b506004361061012c5760003560e01c80634edc719b116100ad57806395d89b411161007157806395d89b411461038f578063a22cb465146103ad578063b88d4fde146103c9578063c87b56dd146103e5578063e985e9c5146104155761012c565b80634edc719b1461029f5780635d9c273d146102cf5780636352211e146102ff5780636865255e1461032f57806370a082311461035f5761012c565b806323b872dd116100f457806323b872dd146101e957806336995f161461020557806342842e0e1461022357806344a7fb291461023f57806346bee89e1461026f5761012c565b806301ffc9a7146101315780630499f4bc1461016157806306fdde031461017f578063081812fc1461019d578063095ea7b3146101cd575b600080fd5b61014b60048036038101906101469190611d80565b610445565b6040516101589190611dc8565b60405180910390f35b610169610527565b6040516101769190611dfc565b60405180910390f35b610187610531565b6040516101949190611ea7565b60405180910390f35b6101b760048036038101906101b29190611ef5565b6105c3565b6040516101c49190611f63565b60405180910390f35b6101e760048036038101906101e29190611faa565b610609565b005b61020360048036038101906101fe9190611fea565b610720565b005b61020d610780565b60405161021a9190611dfc565b60405180910390f35b61023d60048036038101906102389190611fea565b61083a565b005b61025960048036038101906102549190611ef5565b61085a565b6040516102669190611dfc565b60405180910390f35b6102896004803603810190610284919061203d565b610877565b6040516102969190611ea7565b60405180910390f35b6102b960048036038101906102b4919061203d565b610930565b6040516102c69190611ea7565b60405180910390f35b6102e960048036038101906102e491906121b2565b6109fe565b6040516102f69190611dfc565b60405180910390f35b61031960048036038101906103149190611ef5565b610be2565b6040516103269190611f63565b60405180910390f35b61034960048036038101906103449190611ef5565b610c93565b6040516103569190611dfc565b60405180910390f35b6103796004803603810190610374919061220e565b610cab565b6040516103869190611dfc565b60405180910390f35b610397610d62565b6040516103a49190611ea7565b60405180910390f35b6103c760048036038101906103c29190612267565b610df4565b005b6103e360048036038101906103de9190612348565b610e0a565b005b6103ff60048036038101906103fa9190611ef5565b610e6c565b60405161040c9190611ea7565b60405180910390f35b61042f600480360381019061042a91906123cb565b610ed4565b60405161043c9190611dc8565b60405180910390f35b60007f80ac58cd000000000000000000000000000000000000000000000000000000007bffffffffffffffffffffffffffffffffffffffffffffffffffffffff1916827bffffffffffffffffffffffffffffffffffffffffffffffffffffffff1916148061051057507f5b5e139f000000000000000000000000000000000000000000000000000000007bffffffffffffffffffffffffffffffffffffffffffffffffffffffff1916827bffffffffffffffffffffffffffffffffffffffffffffffffffffffff1916145b80610520575061051f82611004565b5b9050919050565b6000600654905090565b6060600080546105409061243a565b80601f016020809104026020016040519081016040528092919081815260200182805461056c9061243a565b80156105b95780601f1061058e576101008083540402835291602001916105b9565b820191906000526020600020905b81548152906001019060200180831161059c57829003601f168201915b5050505050905090565b60006105ce8261106e565b6004600083815260200190815260200160002060009054906101000a900473ffffffffffffffffffffffffffffffffffffffff169050919050565b600061061482610be2565b90508073ffffffffffffffffffffffffffffffffffffffff168373ffffffffffffffffffffffffffffffffffffffff1603610684576040517f08c379a000000000000000000000000000000000000000000000000000000000815260040161067b906124dd565b60405180910390fd5b8073ffffffffffffffffffffffffffffffffffffffff166106a36110b9565b73ffffffffffffffffffffffffffffffffffffffff1614806106d257506106d1816106cc6110b9565b610ed4565b5b610711576040517f08c379a00000000000000000000000000000000000000000000000000000000081526004016107089061256f565b60405180910390fd5b61071b83836110c1565b505050565b61073161072b6110b9565b8261117a565b610770576040517f08c379a000000000000000000000000000000000000000000000000000000000815260040161076790612601565b60405180910390fd5b61077b83838361120f565b505050565b6000806006600081548092919061079690612650565b9190505590506107a63382611475565b3373ffffffffffffffffffffffffffffffffffffffff167f359f9721da9040b524184ad24cf9ed5d606493dfaf426491399e1c0c6084a59c826040516107ec9190611dfc565b60405180910390a26108336040518060400160405280601681526020017f4372656174656420646f63756d656e7420656e747279000000000000000000008152508261164e565b8091505090565b61085583838360405180602001604052806000815250610e0a565b505050565b600060076000838152602001908152602001600020549050919050565b6008602052816000526040600020818154811061089357600080fd5b906000526020600020016000915091505080546108af9061243a565b80601f01602080910402602001604051908101604052809291908181526020018280546108db9061243a565b80156109285780601f106108fd57610100808354040283529160200191610928565b820191906000526020600020905b81548152906001019060200180831161090b57829003601f168201915b505050505081565b6060600860008481526020019081526020016000206001836109529190612698565b81548110610963576109626126cc565b5b9060005260206000200180546109789061243a565b80601f01602080910402602001604051908101604052809291908181526020018280546109a49061243a565b80156109f15780601f106109c6576101008083540402835291602001916109f1565b820191906000526020600020905b8154815290600101906020018083116109d457829003601f168201915b5050505050905092915050565b600082610a0b338261117a565b610a4a576040517f08c379a0000000000000000000000000000000000000000000000000000000008152600401610a4190612747565b60405180910390fd5b6008600085815260200190815260200160002083908060018154018082558091505060019003906000526020600020016000909190919091509081610a8f9190612913565b50600760008581526020019081526020016000206000815480929190610ab490612650565b9190505550833373ffffffffffffffffffffffffffffffffffffffff167f2ac6ea5ea91f8441a572120610ca5b510dfa53ace9587ad7e56d47beeb5b775885604051610b009190611ea7565b60405180910390a33373ffffffffffffffffffffffffffffffffffffffff167f3d9445c9466a027818c198f8395a78e08c57bd097cf4a34e36abc2f85b804a5c856007600088815260200190815260200160002054604051610b639291906129e5565b60405180910390a2610bc26040518060400160405280601c81526020017f416464206461746120746f207377617020636f6e7472616374203a2000000000815250858560086000898152602001908152602001600020805490506116ea565b600860008581526020019081526020016000208054905091505092915050565b6000806002600084815260200190815260200160002060009054906101000a900473ffffffffffffffffffffffffffffffffffffffff169050600073ffffffffffffffffffffffffffffffffffffffff168173ffffffffffffffffffffffffffffffffffffffff1603610c8a576040517f08c379a0000000000000000000000000000000000000000000000000000000008152600401610c8190612a5a565b60405180910390fd5b80915050919050565b60076020528060005260406000206000915090505481565b60008073ffffffffffffffffffffffffffffffffffffffff168273ffffffffffffffffffffffffffffffffffffffff1603610d1b576040517f08c379a0000000000000000000000000000000000000000000000000000000008152600401610d1290612aec565b60405180910390fd5b600360008373ffffffffffffffffffffffffffffffffffffffff1673ffffffffffffffffffffffffffffffffffffffff168152602001908152602001600020549050919050565b606060018054610d719061243a565b80601f0160208091040260200160405190810160405280929190818152602001828054610d9d9061243a565b8015610dea5780601f10610dbf57610100808354040283529160200191610dea565b820191906000526020600020905b815481529060010190602001808311610dcd57829003601f168201915b5050505050905090565b610e06610dff6110b9565b838361178c565b5050565b610e1b610e156110b9565b8361117a565b610e5a576040517f08c379a0000000000000000000000000000000000000000000000000000000008152600401610e5190612601565b60405180910390fd5b610e66848484846118f8565b50505050565b6060610e778261106e565b6000610e81611954565b90506000815111610ea15760405180602001604052806000815250610ecc565b80610eab8461196b565b604051602001610ebc929190612b48565b6040516020818303038152906040525b915050919050565b6000600560008473ffffffffffffffffffffffffffffffffffffffff1673ffffffffffffffffffffffffffffffffffffffff16815260200190815260200160002060008373ffffffffffffffffffffffffffffffffffffffff1673ffffffffffffffffffffffffffffffffffffffff16815260200190815260200160002060009054906101000a900460ff16905092915050565b6110008282604051602401610f7e929190612b6c565b6040516020818303038152906040527f319af333000000000000000000000000000000000000000000000000000000007bffffffffffffffffffffffffffffffffffffffffffffffffffffffff19166020820180517bffffffffffffffffffffffffffffffffffffffffffffffffffffffff8381831617835250505050611acb565b5050565b60007f01ffc9a7000000000000000000000000000000000000000000000000000000007bffffffffffffffffffffffffffffffffffffffffffffffffffffffff1916827bffffffffffffffffffffffffffffffffffffffffffffffffffffffff1916149050919050565b61107781611af4565b6110b6576040517f08c379a00000000000000000000000000000000000000000000000000000000081526004016110ad90612a5a565b60405180910390fd5b50565b600033905090565b816004600083815260200190815260200160002060006101000a81548173ffffffffffffffffffffffffffffffffffffffff021916908373ffffffffffffffffffffffffffffffffffffffff160217905550808273ffffffffffffffffffffffffffffffffffffffff1661113483610be2565b73ffffffffffffffffffffffffffffffffffffffff167f8c5be1e5ebec7d5bd14f71427d1e84f3dd0314c0f7b2291e5b200ac8c7c3b92560405160405180910390a45050565b60008061118683610be2565b90508073ffffffffffffffffffffffffffffffffffffffff168473ffffffffffffffffffffffffffffffffffffffff1614806111c857506111c78185610ed4565b5b8061120657508373ffffffffffffffffffffffffffffffffffffffff166111ee846105c3565b73ffffffffffffffffffffffffffffffffffffffff16145b91505092915050565b8273ffffffffffffffffffffffffffffffffffffffff1661122f82610be2565b73ffffffffffffffffffffffffffffffffffffffff1614611285576040517f08c379a000000000000000000000000000000000000000000000000000000000815260040161127c90612c0e565b60405180910390fd5b600073ffffffffffffffffffffffffffffffffffffffff168273ffffffffffffffffffffffffffffffffffffffff16036112f4576040517f08c379a00000000000000000000000000000000000000000000000000000000081526004016112eb90612ca0565b60405180910390fd5b6112ff838383611b60565b61130a6000826110c1565b6001600360008573ffffffffffffffffffffffffffffffffffffffff1673ffffffffffffffffffffffffffffffffffffffff168152602001908152602001600020600082825461135a9190612698565b925050819055506001600360008473ffffffffffffffffffffffffffffffffffffffff1673ffffffffffffffffffffffffffffffffffffffff16815260200190815260200160002060008282546113b19190612cc0565b92505081905550816002600083815260200190815260200160002060006101000a81548173ffffffffffffffffffffffffffffffffffffffff021916908373ffffffffffffffffffffffffffffffffffffffff160217905550808273ffffffffffffffffffffffffffffffffffffffff168473ffffffffffffffffffffffffffffffffffffffff167fddf252ad1be2c89b69c2b068fc378daa952ba7f163c4a11628f55a4df523b3ef60405160405180910390a4611470838383611b65565b505050565b600073ffffffffffffffffffffffffffffffffffffffff168273ffffffffffffffffffffffffffffffffffffffff16036114e4576040517f08c379a00000000000000000000000000000000000000000000000000000000081526004016114db90612d40565b60405180910390fd5b6114ed81611af4565b1561152d576040517f08c379a000000000000000000000000000000000000000000000000000000000815260040161152490612dac565b60405180910390fd5b61153960008383611b60565b6001600360008473ffffffffffffffffffffffffffffffffffffffff1673ffffffffffffffffffffffffffffffffffffffff16815260200190815260200160002060008282546115899190612cc0565b92505081905550816002600083815260200190815260200160002060006101000a81548173ffffffffffffffffffffffffffffffffffffffff021916908373ffffffffffffffffffffffffffffffffffffffff160217905550808273ffffffffffffffffffffffffffffffffffffffff16600073ffffffffffffffffffffffffffffffffffffffff167fddf252ad1be2c89b69c2b068fc378daa952ba7f163c4a11628f55a4df523b3ef60405160405180910390a461164a60008383611b65565b5050565b6116e68282604051602401611664929190612dcc565b6040516020818303038152906040527f9710a9d0000000000000000000000000000000000000000000000000000000007bffffffffffffffffffffffffffffffffffffffffffffffffffffffff19166020820180517bffffffffffffffffffffffffffffffffffffffffffffffffffffffff8381831617835250505050611acb565b5050565b611786848484846040516024016117049493929190612dfc565b6040516020818303038152906040527fa0c4b225000000000000000000000000000000000000000000000000000000007bffffffffffffffffffffffffffffffffffffffffffffffffffffffff19166020820180517bffffffffffffffffffffffffffffffffffffffffffffffffffffffff8381831617835250505050611acb565b50505050565b8173ffffffffffffffffffffffffffffffffffffffff168373ffffffffffffffffffffffffffffffffffffffff16036117fa576040517f08c379a00000000000000000000000000000000000000000000000000000000081526004016117f190612e9b565b60405180910390fd5b80600560008573ffffffffffffffffffffffffffffffffffffffff1673ffffffffffffffffffffffffffffffffffffffff16815260200190815260200160002060008473ffffffffffffffffffffffffffffffffffffffff1673ffffffffffffffffffffffffffffffffffffffff16815260200190815260200160002060006101000a81548160ff0219169083151502179055508173ffffffffffffffffffffffffffffffffffffffff168373ffffffffffffffffffffffffffffffffffffffff167f17307eab39ab6107e8899845ad3d59bd9653f200f220920489ca2b5937696c31836040516118eb9190611dc8565b60405180910390a3505050565b61190384848461120f565b61190f84848484611b6a565b61194e576040517f08c379a000000000000000000000000000000000000000000000000000000000815260040161194590612f2d565b60405180910390fd5b50505050565b606060405180602001604052806000815250905090565b6060600082036119b2576040518060400160405280600181526020017f30000000000000000000000000000000000000000000000000000000000000008152509050611ac6565b600082905060005b600082146119e45780806119cd90612650565b915050600a826119dd9190612f7c565b91506119ba565b60008167ffffffffffffffff811115611a00576119ff612087565b5b6040519080825280601f01601f191660200182016040528015611a325781602001600182028036833780820191505090505b5090505b60008514611abf57600182611a4b9190612698565b9150600a85611a5a9190612fad565b6030611a669190612cc0565b60f81b818381518110611a7c57611a7b6126cc565b5b60200101907effffffffffffffffffffffffffffffffffffffffffffffffffffffffffffff1916908160001a905350600a85611ab89190612f7c565b9450611a36565b8093505050505b919050565b60008151905060006a636f6e736f6c652e6c6f679050602083016000808483855afa5050505050565b60008073ffffffffffffffffffffffffffffffffffffffff166002600084815260200190815260200160002060009054906101000a900473ffffffffffffffffffffffffffffffffffffffff1673ffffffffffffffffffffffffffffffffffffffff1614159050919050565b505050565b505050565b6000611b8b8473ffffffffffffffffffffffffffffffffffffffff16611cf1565b15611ce4578373ffffffffffffffffffffffffffffffffffffffff1663150b7a02611bb46110b9565b8786866040518563ffffffff1660e01b8152600401611bd69493929190613033565b6020604051808303816000875af1925050508015611c1257506040513d601f19601f82011682018060405250810190611c0f9190613094565b60015b611c94573d8060008114611c42576040519150601f19603f3d011682016040523d82523d6000602084013e611c47565b606091505b506000815103611c8c576040517f08c379a0000000000000000000000000000000000000000000000000000000008152600401611c8390612f2d565b60405180910390fd5b805181602001fd5b63150b7a0260e01b7bffffffffffffffffffffffffffffffffffffffffffffffffffffffff1916817bffffffffffffffffffffffffffffffffffffffffffffffffffffffff191614915050611ce9565b600190505b949350505050565b6000808273ffffffffffffffffffffffffffffffffffffffff163b119050919050565b6000604051905090565b600080fd5b600080fd5b60007fffffffff0000000000000000000000000000000000000000000000000000000082169050919050565b611d5d81611d28565b8114611d6857600080fd5b50565b600081359050611d7a81611d54565b92915050565b600060208284031215611d9657611d95611d1e565b5b6000611da484828501611d6b565b91505092915050565b60008115159050919050565b611dc281611dad565b82525050565b6000602082019050611ddd6000830184611db9565b92915050565b6000819050919050565b611df681611de3565b82525050565b6000602082019050611e116000830184611ded565b92915050565b600081519050919050565b600082825260208201905092915050565b60005b83811015611e51578082015181840152602081019050611e36565b60008484015250505050565b6000601f19601f8301169050919050565b6000611e7982611e17565b611e838185611e22565b9350611e93818560208601611e33565b611e9c81611e5d565b840191505092915050565b60006020820190508181036000830152611ec18184611e6e565b905092915050565b611ed281611de3565b8114611edd57600080fd5b50565b600081359050611eef81611ec9565b92915050565b600060208284031215611f0b57611f0a611d1e565b5b6000611f1984828501611ee0565b91505092915050565b600073ffffffffffffffffffffffffffffffffffffffff82169050919050565b6000611f4d82611f22565b9050919050565b611f5d81611f42565b82525050565b6000602082019050611f786000830184611f54565b92915050565b611f8781611f42565b8114611f9257600080fd5b50565b600081359050611fa481611f7e565b92915050565b60008060408385031215611fc157611fc0611d1e565b5b6000611fcf85828601611f95565b9250506020611fe085828601611ee0565b9150509250929050565b60008060006060848603121561200357612002611d1e565b5b600061201186828701611f95565b935050602061202286828701611f95565b925050604061203386828701611ee0565b9150509250925092565b6000806040838503121561205457612053611d1e565b5b600061206285828601611ee0565b925050602061207385828601611ee0565b9150509250929050565b600080fd5b600080fd5b7f4e487b7100000000000000000000000000000000000000000000000000000000600052604160045260246000fd5b6120bf82611e5d565b810181811067ffffffffffffffff821117156120de576120dd612087565b5b80604052505050565b60006120f1611d14565b90506120fd82826120b6565b919050565b600067ffffffffffffffff82111561211d5761211c612087565b5b61212682611e5d565b9050602081019050919050565b82818337600083830152505050565b600061215561215084612102565b6120e7565b90508281526020810184848401111561217157612170612082565b5b61217c848285612133565b509392505050565b600082601f8301126121995761219861207d565b5b81356121a9848260208601612142565b91505092915050565b600080604083850312156121c9576121c8611d1e565b5b60006121d785828601611ee0565b925050602083013567ffffffffffffffff8111156121f8576121f7611d23565b5b61220485828601612184565b9150509250929050565b60006020828403121561222457612223611d1e565b5b600061223284828501611f95565b91505092915050565b61224481611dad565b811461224f57600080fd5b50565b6000813590506122618161223b565b92915050565b6000806040838503121561227e5761227d611d1e565b5b600061228c85828601611f95565b925050602061229d85828601612252565b9150509250929050565b600067ffffffffffffffff8211156122c2576122c1612087565b5b6122cb82611e5d565b9050602081019050919050565b60006122eb6122e6846122a7565b6120e7565b90508281526020810184848401111561230757612306612082565b5b612312848285612133565b509392505050565b600082601f83011261232f5761232e61207d565b5b813561233f8482602086016122d8565b91505092915050565b6000806000806080858703121561236257612361611d1e565b5b600061237087828801611f95565b945050602061238187828801611f95565b935050604061239287828801611ee0565b925050606085013567ffffffffffffffff8111156123b3576123b2611d23565b5b6123bf8782880161231a565b91505092959194509250565b600080604083850312156123e2576123e1611d1e565b5b60006123f085828601611f95565b925050602061240185828601611f95565b9150509250929050565b7f4e487b7100000000000000000000000000000000000000000000000000000000600052602260045260246000fd5b6000600282049050600182168061245257607f821691505b6020821081036124655761246461240b565b5b50919050565b7f4552433732313a20617070726f76616c20746f2063757272656e74206f776e6560008201527f7200000000000000000000000000000000000000000000000000000000000000602082015250565b60006124c7602183611e22565b91506124d28261246b565b604082019050919050565b600060208201905081810360008301526124f6816124ba565b9050919050565b7f4552433732313a20617070726f76652063616c6c6572206973206e6f7420746f60008201527f6b656e206f776e6572206e6f7220617070726f76656420666f7220616c6c0000602082015250565b6000612559603e83611e22565b9150612564826124fd565b604082019050919050565b600060208201905081810360008301526125888161254c565b9050919050565b7f4552433732313a2063616c6c6572206973206e6f7420746f6b656e206f776e6560008201527f72206e6f7220617070726f766564000000000000000000000000000000000000602082015250565b60006125eb602e83611e22565b91506125f68261258f565b604082019050919050565b6000602082019050818103600083015261261a816125de565b9050919050565b7f4e487b7100000000000000000000000000000000000000000000000000000000600052601160045260246000fd5b600061265b82611de3565b91507fffffffffffffffffffffffffffffffffffffffffffffffffffffffffffffffff820361268d5761268c612621565b5b600182019050919050565b60006126a382611de3565b91506126ae83611de3565b92508282039050818111156126c6576126c5612621565b5b92915050565b7f4e487b7100000000000000000000000000000000000000000000000000000000600052603260045260246000fd5b7f556e617574686f72697a65640000000000000000000000000000000000000000600082015250565b6000612731600c83611e22565b915061273c826126fb565b602082019050919050565b6000602082019050818103600083015261276081612724565b9050919050565b60008190508160005260206000209050919050565b60006020601f8301049050919050565b600082821b905092915050565b6000600883026127c97fffffffffffffffffffffffffffffffffffffffffffffffffffffffffffffffff8261278c565b6127d3868361278c565b95508019841693508086168417925050509392505050565b6000819050919050565b600061281061280b61280684611de3565b6127eb565b611de3565b9050919050565b6000819050919050565b61282a836127f5565b61283e61283682612817565b848454612799565b825550505050565b600090565b612853612846565b61285e818484612821565b505050565b5b818110156128825761287760008261284b565b600181019050612864565b5050565b601f8211156128c75761289881612767565b6128a18461277c565b810160208510156128b0578190505b6128c46128bc8561277c565b830182612863565b50505b505050565b600082821c905092915050565b60006128ea600019846008026128cc565b1980831691505092915050565b600061290383836128d9565b9150826002028217905092915050565b61291c82611e17565b67ffffffffffffffff81111561293557612934612087565b5b61293f825461243a565b61294a828285612886565b600060209050601f83116001811461297d576000841561296b578287015190505b61297585826128f7565b8655506129dd565b601f19841661298b86612767565b60005b828110156129b35784890151825560018201915060208501945060208101905061298e565b868310156129d057848901516129cc601f8916826128d9565b8355505b6001600288020188555050505b505050505050565b60006040820190506129fa6000830185611ded565b612a076020830184611ded565b9392505050565b7f4552433732313a20696e76616c696420746f6b656e2049440000000000000000600082015250565b6000612a44601883611e22565b9150612a4f82612a0e565b602082019050919050565b60006020820190508181036000830152612a7381612a37565b9050919050565b7f4552433732313a2061646472657373207a65726f206973206e6f74206120766160008201527f6c6964206f776e65720000000000000000000000000000000000000000000000602082015250565b6000612ad6602983611e22565b9150612ae182612a7a565b604082019050919050565b60006020820190508181036000830152612b0581612ac9565b9050919050565b600081905092915050565b6000612b2282611e17565b612b2c8185612b0c565b9350612b3c818560208601611e33565b80840191505092915050565b6000612b548285612b17565b9150612b608284612b17565b91508190509392505050565b60006040820190508181036000830152612b868185611e6e565b9050612b956020830184611f54565b9392505050565b7f4552433732313a207472616e736665722066726f6d20696e636f72726563742060008201527f6f776e6572000000000000000000000000000000000000000000000000000000602082015250565b6000612bf8602583611e22565b9150612c0382612b9c565b604082019050919050565b60006020820190508181036000830152612c2781612beb565b9050919050565b7f4552433732313a207472616e7366657220746f20746865207a65726f2061646460008201527f7265737300000000000000000000000000000000000000000000000000000000602082015250565b6000612c8a602483611e22565b9150612c9582612c2e565b604082019050919050565b60006020820190508181036000830152612cb981612c7d565b9050919050565b6000612ccb82611de3565b9150612cd683611de3565b9250828201905080821115612cee57612ced612621565b5b92915050565b7f4552433732313a206d696e7420746f20746865207a65726f2061646472657373600082015250565b6000612d2a602083611e22565b9150612d3582612cf4565b602082019050919050565b60006020820190508181036000830152612d5981612d1d565b9050919050565b7f4552433732313a20746f6b656e20616c7265616479206d696e74656400000000600082015250565b6000612d96601c83611e22565b9150612da182612d60565b602082019050919050565b60006020820190508181036000830152612dc581612d89565b9050919050565b60006040820190508181036000830152612de68185611e6e565b9050612df56020830184611ded565b9392505050565b60006080820190508181036000830152612e168187611e6e565b9050612e256020830186611ded565b8181036040830152612e378185611e6e565b9050612e466060830184611ded565b95945050505050565b7f4552433732313a20617070726f766520746f2063616c6c657200000000000000600082015250565b6000612e85601983611e22565b9150612e9082612e4f565b602082019050919050565b60006020820190508181036000830152612eb481612e78565b9050919050565b7f4552433732313a207472616e7366657220746f206e6f6e20455243373231526560008201527f63656976657220696d706c656d656e7465720000000000000000000000000000602082015250565b6000612f17603283611e22565b9150612f2282612ebb565b604082019050919050565b60006020820190508181036000830152612f4681612f0a565b9050919050565b7f4e487b7100000000000000000000000000000000000000000000000000000000600052601260045260246000fd5b6000612f8782611de3565b9150612f9283611de3565b925082612fa257612fa1612f4d565b5b828204905092915050565b6000612fb882611de3565b9150612fc383611de3565b925082612fd357612fd2612f4d565b5b828206905092915050565b600081519050919050565b600082825260208201905092915050565b600061300582612fde565b61300f8185612fe9565b935061301f818560208601611e33565b61302881611e5d565b840191505092915050565b60006080820190506130486000830187611f54565b6130556020830186611f54565b6130626040830185611ded565b81810360608301526130748184612ffa565b905095945050505050565b60008151905061308e81611d54565b92915050565b6000602082840312156130aa576130a9611d1e565b5b60006130b88482850161307f565b9150509291505056fea26469706673582212203ae7953038d6fda2f0a98b458edd4e1283fe5ad59dea135535e4b99f8315689b64736f6c63430008110033",
  "linkReferences": {},
  "deployedLinkReferences": {}
}