{
  "_format": "hh-sol-artifact-1",
  "contractName": "SwapContract",
  "sourceName": "contracts/SwapContract.sol",
  "abi": [
    {
      "inputs": [],
      "stateMutability": "nonpayable",
      "type": "constructor"
    },
    {
      "anonymous": false,
      "inputs": [
        {
          "indexed": true,
          "internalType": "address",
          "name": "sender",
          "type": "address"
        },
        {
          "indexed": true,
          "internalType": "uint256",
          "name": "swapId",
          "type": "uint256"
        },
        {
          "indexed": false,
          "internalType": "string",
          "name": "data",
          "type": "string"
        }
      ],
      "name": "PushDataToSwapContract",
      "type": "event"
    },
    {
      "anonymous": false,
      "inputs": [
        {
          "indexed": true,
          "internalType": "address",
          "name": "sender",
          "type": "address"
        },
        {
          "indexed": false,
          "internalType": "uint256",
          "name": "swapId",
          "type": "uint256"
        }
      ],
      "name": "CreateSwapContract",
      "type": "event"
    },
    {
      "anonymous": false,
      "inputs": [
        {
          "indexed": true,
          "internalType": "address",
          "name": "sender",
          "type": "address"
        },
        {
          "indexed": false,
          "internalType": "uint256",
          "name": "swapId",
          "type": "uint256"
        },
        {
          "indexed": false,
          "internalType": "uint256",
          "name": "newVersion",
          "type": "uint256"
        }
      ],
      "name": "UpdateSwapContractVersion",
      "type": "event"
    },
    {
      "inputs": [
        {
          "internalType": "uint256",
          "name": "swapId",
          "type": "uint256"
        },
        {
          "internalType": "string",
          "name": "data",
          "type": "string"
        }
      ],
      "name": "pushDataToSwapContract",
      "outputs": [
        {
          "internalType": "uint256",
          "name": "",
          "type": "uint256"
        }
      ],
      "stateMutability": "nonpayable",
      "type": "function"
    },
    {
      "inputs": [],
      "name": "createSwapContract",
      "outputs": [
        {
          "internalType": "uint256",
          "name": "",
          "type": "uint256"
        }
      ],
      "stateMutability": "nonpayable",
      "type": "function"
    },
    {
      "inputs": [],
      "name": "swapContractCount",
      "outputs": [
        {
          "internalType": "uint256",
          "name": "",
          "type": "uint256"
        }
      ],
      "stateMutability": "nonpayable",
      "type": "function"
    },
    {
      "inputs": [
        {
          "internalType": "uint256",
          "name": "swapId",
          "type": "uint256"
        }
      ],
      "name": "swapContractVersions",
      "outputs": [
        {
          "internalType": "uint256",
          "name": "",
          "type": "uint256"
        }
      ],
      "stateMutability": "view",
      "type": "function"
    },
    {
      "inputs": [
        {
          "internalType": "uint256",
          "name": "swapId",
          "type": "uint256"
        },
        {
          "internalType": "uint256",
          "name": "version",
          "type": "uint256"
        }
      ],
      "name": "retreiveSwapContractByIdVersion",
      "outputs": [
        {
          "internalType": "string",
          "name": "",
          "type": "string"
        }
      ],
      "stateMutability": "view",
      "type": "function"
    }
  ],
  "bytecode": "0x60806040523480156200001157600080fd5b506040518060400160405280601481526020017f446f63756d656e742041666669726d6174696f6e0000000000000000000000008152506040518060400160405280600681526020017f446f634166660000000000000000000000000000000000000000000000000000815250816000908051906020019062000096929190620001d3565b508060019080519060200190620000af929190620001d3565b505050620000fe6040518060400160405280601281526020017f4465706c6f79656420446f6341666620746f0000000000000000000000000000815250306200010460201b62001b971760201c565b62000405565b620001a682826040516024016200011d9291906200036c565b6040516020818303038152906040527f319af333000000000000000000000000000000000000000000000000000000007bffffffffffffffffffffffffffffffffffffffffffffffffffffffff19166020820180517bffffffffffffffffffffffffffffffffffffffffffffffffffffffff8381831617835250505050620001aa60201b60201c565b5050565b60008151905060006a636f6e736f6c652e6c6f679050602083016000808483855afa5050505050565b828054620001e190620003cf565b90600052602060002090601f01602090048101928262000205576000855562000251565b82601f106200022057805160ff191683800117855562000251565b8280016001018555821562000251579182015b828111156200025057825182559160200191906001019062000233565b5b50905062000260919062000264565b5090565b5b808211156200027f57600081600090555060010162000265565b5090565b600081519050919050565b600082825260208201905092915050565b60005b83811015620002bf578082015181840152602081019050620002a2565b83811115620002cf576000848401525b50505050565b6000601f19601f8301169050919050565b6000620002f38262000283565b620002ff81856200028e565b9350620003118185602086016200029f565b6200031c81620002d5565b840191505092915050565b600073ffffffffffffffffffffffffffffffffffffffff82169050919050565b6000620003548262000327565b9050919050565b620003668162000347565b82525050565b60006040820190508181036000830152620003888185620002e6565b90506200039960208301846200035b565b9392505050565b7f4e487b7100000000000000000000000000000000000000000000000000000000600052602260045260246000fd5b60006002820490506001821680620003e857607f821691505b60208210811415620003ff57620003fe620003a0565b5b50919050565b613dce80620004156000396000f3fe608060405234801561001057600080fd5b50600436106101da5760003560e01c8063845c528c11610104578063b53003ca116100a2578063d7e05ff011610071578063d7e05ff0146105c1578063d86db849146105f1578063e985e9c514610621578063f187245114610651576101da565b8063b53003ca14610529578063b88d4fde14610545578063c87b56dd14610561578063ca230b2614610591576101da565b806395d89b41116100de57806395d89b41146104a35780639c7ad103146104c1578063a059f53b146104f1578063a22cb4651461050d576101da565b8063845c528c1461043b578063852679071461046b57806386b2375c14610487576101da565b80633585102b1161017c5780634ca4e8351161014b5780634ca4e8351461037b5780636352211e146103ab5780636829efff146103db57806370a082311461040b576101da565b80633585102b146102e35780633ba0385c146102ff57806342842e0e1461032f5780634a39de641461034b576101da565b8063081812fc116101b8578063081812fc1461025d578063095ea7b31461028d5780631d65d62c146102a957806323b872dd146102c7576101da565b806301f36f3b146101df57806301ffc9a71461020f57806306fdde031461023f575b600080fd5b6101f960048036038101906101f49190612b3d565b61066d565b6040516102069190612b98565b60405180910390f35b61022960048036038101906102249190612c0b565b6106d5565b6040516102369190612b98565b60405180910390f35b6102476107b7565b6040516102549190612cd1565b60405180910390f35b61027760048036038101906102729190612cf3565b610849565b6040516102849190612d2f565b60405180910390f35b6102a760048036038101906102a29190612d4a565b61088f565b005b6102b16109a7565b6040516102be9190612d99565b60405180910390f35b6102e160048036038101906102dc9190612db4565b610a61565b005b6102fd60048036038101906102f89190612b3d565b610ac1565b005b61031960048036038101906103149190612e07565b610bb9565b6040516103269190612d99565b60405180910390f35b61034960048036038101906103449190612db4565b610bea565b005b61036560048036038101906103609190612cf3565b610c0a565b6040516103729190612d99565b60405180910390f35b61039560048036038101906103909190612e07565b610c2a565b6040516103a29190612d99565b60405180910390f35b6103c560048036038101906103c09190612cf3565b610e0e565b6040516103d29190612d2f565b60405180910390f35b6103f560048036038101906103f09190612e47565b610ec0565b6040516104029190612d99565b60405180910390f35b61042560048036038101906104209190612e9a565b611178565b6040516104329190612d99565b60405180910390f35b61045560048036038101906104509190612b3d565b611230565b6040516104629190612b98565b60405180910390f35b61048560048036038101906104809190612b3d565b61125f565b005b6104a1600480360381019061049c9190612e07565b611357565b005b6104ab61148b565b6040516104b89190612cd1565b60405180910390f35b6104db60048036038101906104d69190612cf3565b61151d565b6040516104e89190612d99565b60405180910390f35b61050b60048036038101906105069190612b3d565b611535565b005b61052760048036038101906105229190612ef3565b61162d565b005b610543600480360381019061053e9190612e07565b611643565b005b61055f600480360381019061055a9190613068565b611777565b005b61057b60048036038101906105769190612cf3565b6117d9565b6040516105889190612cd1565b60405180910390f35b6105ab60048036038101906105a69190612b3d565b611841565b6040516105b89190612b98565b60405180910390f35b6105db60048036038101906105d69190612b3d565b6118a9565b6040516105e89190612b98565b60405180910390f35b61060b60048036038101906106069190612cf3565b6118d8565b6040516106189190612d99565b60405180910390f35b61063b600480360381019061063691906130eb565b611a0b565b6040516106489190612b98565b60405180910390f35b61066b60048036038101906106669190612b3d565b611a9f565b005b6000600a600084815260200190815260200160002060008373ffffffffffffffffffffffffffffffffffffffff1673ffffffffffffffffffffffffffffffffffffffff16815260200190815260200160002060009054906101000a900460ff16905092915050565b60007f80ac58cd000000000000000000000000000000000000000000000000000000007bffffffffffffffffffffffffffffffffffffffffffffffffffffffff1916827bffffffffffffffffffffffffffffffffffffffffffffffffffffffff191614806107a057507f5b5e139f000000000000000000000000000000000000000000000000000000007bffffffffffffffffffffffffffffffffffffffffffffffffffffffff1916827bffffffffffffffffffffffffffffffffffffffffffffffffffffffff1916145b806107b057506107af82611c33565b5b9050919050565b6060600080546107c69061315a565b80601f01602080910402602001604051908101604052809291908181526020018280546107f29061315a565b801561083f5780601f106108145761010080835404028352916020019161083f565b820191906000526020600020905b81548152906001019060200180831161082257829003601f168201915b5050505050905090565b600061085482611c9d565b6004600083815260200190815260200160002060009054906101000a900473ffffffffffffffffffffffffffffffffffffffff169050919050565b600061089a82610e0e565b90508073ffffffffffffffffffffffffffffffffffffffff168373ffffffffffffffffffffffffffffffffffffffff16141561090b576040517f08c379a0000000000000000000000000000000000000000000000000000000008152600401610902906131fe565b60405180910390fd5b8073ffffffffffffffffffffffffffffffffffffffff1661092a611ce8565b73ffffffffffffffffffffffffffffffffffffffff161480610959575061095881610953611ce8565b611a0b565b5b610998576040517f08c379a000000000000000000000000000000000000000000000000000000000815260040161098f90613290565b60405180910390fd5b6109a28383611cf0565b505050565b600080600660008154809291906109bd906132df565b9190505590506109cd3382611da9565b3373ffffffffffffffffffffffffffffffffffffffff167fd11d1f12551918114d934719a9dc2fd7434decbad3277585c7f33f904116ade982604051610a139190612d99565b60405180910390a2610a5a6040518060400160405280601681526020017f4372656174656420646f63756d656e7420656e7472790000000000000000000081525082611f83565b8091505090565b610a72610a6c611ce8565b8261201f565b610ab1576040517f08c379a0000000000000000000000000000000000000000000000000000000008152600401610aa89061339a565b60405180910390fd5b610abc8383836120b4565b505050565b81610acc338261201f565b610b0b576040517f08c379a0000000000000000000000000000000000000000000000000000000008152600401610b0290613406565b60405180910390fd5b610b4b6040518060400160405280600c81526020017f5265736574207669657765720000000000000000000000000000000000000000815250848461231b565b60006009600085815260200190815260200160002060008473ffffffffffffffffffffffffffffffffffffffff1673ffffffffffffffffffffffffffffffffffffffff16815260200190815260200160002060006101000a81548160ff021916908315150217905550505050565b60086020528160005260406000208181548110610bd557600080fd5b90600052602060002001600091509150505481565b610c0583838360405180602001604052806000815250611777565b505050565b600060086000838152602001908152602001600020805490509050919050565b600082610c37338261201f565b610c76576040517f08c379a0000000000000000000000000000000000000000000000000000000008152600401610c6d90613406565b60405180910390fd5b60086000858152602001908152602001600020839080600181540180825580915050600190039060005260206000200160009091909190915055600760008581526020019081526020016000206000815480929190610cd4906132df565b9190505550833373ffffffffffffffffffffffffffffffffffffffff167f2d6a0424f9b923385918ce79a8bc436a483779a5f979a1171dc4fbbc411703b685604051610d209190612d99565b60405180910390a33373ffffffffffffffffffffffffffffffffffffffff167f771a25ff6275486c6f4c85ade5b67e106532a8d9e60ff932935a883ca1d8db6c856007600088815260200190815260200160002054604051610d83929190613426565b60405180910390a2610dee6040518060400160405280601581526020017f41646420646f63756d656e7420746f20656e747279000000000000000000000081525085856001600860008a815260200190815260200160002080549050610de9919061344f565b6123ba565b600860008581526020019081526020016000208054905091505092915050565b6000806002600084815260200190815260200160002060009054906101000a900473ffffffffffffffffffffffffffffffffffffffff169050600073ffffffffffffffffffffffffffffffffffffffff168173ffffffffffffffffffffffffffffffffffffffff161415610eb7576040517f08c379a0000000000000000000000000000000000000000000000000000000008152600401610eae906134cf565b60405180910390fd5b80915050919050565b600083610ecd338261201f565b610f0c576040517f08c379a0000000000000000000000000000000000000000000000000000000008152600401610f0390613406565b60405180910390fd5b83600860008781526020019081526020016000208481548110610f3257610f316134ef565b5b906000526020600020015414610f7d576040517f08c379a0000000000000000000000000000000000000000000000000000000008152600401610f749061356a565b60405180910390fd5b6008600086815260200190815260200160002060016008600088815260200190815260200160002080549050610fb3919061344f565b81548110610fc457610fc36134ef565b5b9060005260206000200154600860008781526020019081526020016000208481548110610ff457610ff36134ef565b5b9060005260206000200181905550600860008681526020019081526020016000208054806110255761102461358a565b5b6001900381819060005260206000200160009055905560076000868152602001908152602001600020600081548092919061105f906132df565b9190505550843373ffffffffffffffffffffffffffffffffffffffff167fd2d4c5eae6db8bc92da20e2964f3e09ce469989e58f5519c890c7159de9501b6866040516110ab9190612d99565b60405180910390a33373ffffffffffffffffffffffffffffffffffffffff167f771a25ff6275486c6f4c85ade5b67e106532a8d9e60ff932935a883ca1d8db6c86600760008981526020019081526020016000205460405161110e929190613426565b60405180910390a26111576040518060400160405280601881526020017f52656d6f766520646f63756d656e7420746f20656e74727900000000000000008152508686866123ba565b60086000868152602001908152602001600020805490509150509392505050565b60008073ffffffffffffffffffffffffffffffffffffffff168273ffffffffffffffffffffffffffffffffffffffff1614156111e9576040517f08c379a00000000000000000000000000000000000000000000000000000000081526004016111e09061362b565b60405180910390fd5b600360008373ffffffffffffffffffffffffffffffffffffffff1673ffffffffffffffffffffffffffffffffffffffff168152602001908152602001600020549050919050565b60096020528160005260406000206020528060005260406000206000915091509054906101000a900460ff1681565b8161126a338261201f565b6112a9576040517f08c379a00000000000000000000000000000000000000000000000000000000081526004016112a090613406565b60405180910390fd5b6112e96040518060400160405280600a81526020017f536574207369676e657200000000000000000000000000000000000000000000815250848461231b565b6001600a600085815260200190815260200160002060008473ffffffffffffffffffffffffffffffffffffffff1673ffffffffffffffffffffffffffffffffffffffff16815260200190815260200160002060006101000a81548160ff021916908315150217905550505050565b611361823361066d565b6113a0576040517f08c379a000000000000000000000000000000000000000000000000000000000815260040161139790613697565b60405180910390fd5b806007600084815260200190815260200160002054146113f5576040517f08c379a00000000000000000000000000000000000000000000000000000000081526004016113ec90613703565b60405180910390fd5b6114356040518060400160405280600681526020017f52656a6563740000000000000000000000000000000000000000000000000000815250838361245c565b813373ffffffffffffffffffffffffffffffffffffffff167f7f5105b48aeb585aa4ff1a8e20a7ed2fe58b5cbf2703c111e2539e2015936f4c83600060405161147f929190613723565b60405180910390a35050565b60606001805461149a9061315a565b80601f01602080910402602001604051908101604052809291908181526020018280546114c69061315a565b80156115135780601f106114e857610100808354040283529160200191611513565b820191906000526020600020905b8154815290600101906020018083116114f657829003601f168201915b5050505050905090565b60076020528060005260406000206000915090505481565b81611540338261201f565b61157f576040517f08c379a000000000000000000000000000000000000000000000000000000000815260040161157690613406565b60405180910390fd5b6115bf6040518060400160405280600c81526020017f5265736574207369676e65720000000000000000000000000000000000000000815250848461231b565b60006009600085815260200190815260200160002060008473ffffffffffffffffffffffffffffffffffffffff1673ffffffffffffffffffffffffffffffffffffffff16815260200190815260200160002060006101000a81548160ff021916908315150217905550505050565b61163f611638611ce8565b83836124fb565b5050565b61164d823361066d565b61168c576040517f08c379a000000000000000000000000000000000000000000000000000000000815260040161168390613697565b60405180910390fd5b806007600084815260200190815260200160002054146116e1576040517f08c379a00000000000000000000000000000000000000000000000000000000081526004016116d890613703565b60405180910390fd5b6117216040518060400160405280600481526020017f5369676e00000000000000000000000000000000000000000000000000000000815250838361245c565b813373ffffffffffffffffffffffffffffffffffffffff167f7f5105b48aeb585aa4ff1a8e20a7ed2fe58b5cbf2703c111e2539e2015936f4c83600160405161176b929190613723565b60405180910390a35050565b611788611782611ce8565b8361201f565b6117c7576040517f08c379a00000000000000000000000000000000000000000000000000000000081526004016117be9061339a565b60405180910390fd5b6117d384848484612668565b50505050565b60606117e482611c9d565b60006117ee6126c4565b9050600081511161180e5760405180602001604052806000815250611839565b80611818846126db565b604051602001611829929190613788565b6040516020818303038152906040525b915050919050565b60006009600084815260200190815260200160002060008373ffffffffffffffffffffffffffffffffffffffff1673ffffffffffffffffffffffffffffffffffffffff16815260200190815260200160002060009054906101000a900460ff16905092915050565b600a6020528160005260406000206020528060005260406000206000915091509054906101000a900460ff1681565b6000816118e5338261201f565b611924576040517f08c379a000000000000000000000000000000000000000000000000000000000815260040161191b90613406565b60405180910390fd5b600760008481526020019081526020016000206000815480929190611948906132df565b91905055503373ffffffffffffffffffffffffffffffffffffffff167f771a25ff6275486c6f4c85ade5b67e106532a8d9e60ff932935a883ca1d8db6c8460076000878152602001908152602001600020546040516119a8929190613426565b60405180910390a26119ef6040518060400160405280601481526020017f526573657420646f63756d656e7420656e74727900000000000000000000000081525084611f83565b6007600084815260200190815260200160002054915050919050565b6000600560008473ffffffffffffffffffffffffffffffffffffffff1673ffffffffffffffffffffffffffffffffffffffff16815260200190815260200160002060008373ffffffffffffffffffffffffffffffffffffffff1673ffffffffffffffffffffffffffffffffffffffff16815260200190815260200160002060009054906101000a900460ff16905092915050565b81611aaa338261201f565b611ae9576040517f08c379a0000000000000000000000000000000000000000000000000000000008152600401611ae090613406565b60405180910390fd5b611b296040518060400160405280600a81526020017f5365742076696577657200000000000000000000000000000000000000000000815250848461231b565b60016009600085815260200190815260200160002060008473ffffffffffffffffffffffffffffffffffffffff1673ffffffffffffffffffffffffffffffffffffffff16815260200190815260200160002060006101000a81548160ff021916908315150217905550505050565b611c2f8282604051602401611bad9291906137ac565b6040516020818303038152906040527f319af333000000000000000000000000000000000000000000000000000000007bffffffffffffffffffffffffffffffffffffffffffffffffffffffff19166020820180517bffffffffffffffffffffffffffffffffffffffffffffffffffffffff838183161783525050505061283c565b5050565b60007f01ffc9a7000000000000000000000000000000000000000000000000000000007bffffffffffffffffffffffffffffffffffffffffffffffffffffffff1916827bffffffffffffffffffffffffffffffffffffffffffffffffffffffff1916149050919050565b611ca681612865565b611ce5576040517f08c379a0000000000000000000000000000000000000000000000000000000008152600401611cdc906134cf565b60405180910390fd5b50565b600033905090565b816004600083815260200190815260200160002060006101000a81548173ffffffffffffffffffffffffffffffffffffffff021916908373ffffffffffffffffffffffffffffffffffffffff160217905550808273ffffffffffffffffffffffffffffffffffffffff16611d6383610e0e565b73ffffffffffffffffffffffffffffffffffffffff167f8c5be1e5ebec7d5bd14f71427d1e84f3dd0314c0f7b2291e5b200ac8c7c3b92560405160405180910390a45050565b600073ffffffffffffffffffffffffffffffffffffffff168273ffffffffffffffffffffffffffffffffffffffff161415611e19576040517f08c379a0000000000000000000000000000000000000000000000000000000008152600401611e1090613828565b60405180910390fd5b611e2281612865565b15611e62576040517f08c379a0000000000000000000000000000000000000000000000000000000008152600401611e5990613894565b60405180910390fd5b611e6e600083836128d1565b6001600360008473ffffffffffffffffffffffffffffffffffffffff1673ffffffffffffffffffffffffffffffffffffffff1681526020019081526020016000206000828254611ebe91906138b4565b92505081905550816002600083815260200190815260200160002060006101000a81548173ffffffffffffffffffffffffffffffffffffffff021916908373ffffffffffffffffffffffffffffffffffffffff160217905550808273ffffffffffffffffffffffffffffffffffffffff16600073ffffffffffffffffffffffffffffffffffffffff167fddf252ad1be2c89b69c2b068fc378daa952ba7f163c4a11628f55a4df523b3ef60405160405180910390a4611f7f600083836128d6565b5050565b61201b8282604051602401611f9992919061390a565b6040516020818303038152906040527f9710a9d0000000000000000000000000000000000000000000000000000000007bffffffffffffffffffffffffffffffffffffffffffffffffffffffff19166020820180517bffffffffffffffffffffffffffffffffffffffffffffffffffffffff838183161783525050505061283c565b5050565b60008061202b83610e0e565b90508073ffffffffffffffffffffffffffffffffffffffff168473ffffffffffffffffffffffffffffffffffffffff16148061206d575061206c8185611a0b565b5b806120ab57508373ffffffffffffffffffffffffffffffffffffffff1661209384610849565b73ffffffffffffffffffffffffffffffffffffffff16145b91505092915050565b8273ffffffffffffffffffffffffffffffffffffffff166120d482610e0e565b73ffffffffffffffffffffffffffffffffffffffff161461212a576040517f08c379a0000000000000000000000000000000000000000000000000000000008152600401612121906139ac565b60405180910390fd5b600073ffffffffffffffffffffffffffffffffffffffff168273ffffffffffffffffffffffffffffffffffffffff16141561219a576040517f08c379a000000000000000000000000000000000000000000000000000000000815260040161219190613a3e565b60405180910390fd5b6121a58383836128d1565b6121b0600082611cf0565b6001600360008573ffffffffffffffffffffffffffffffffffffffff1673ffffffffffffffffffffffffffffffffffffffff1681526020019081526020016000206000828254612200919061344f565b925050819055506001600360008473ffffffffffffffffffffffffffffffffffffffff1673ffffffffffffffffffffffffffffffffffffffff168152602001908152602001600020600082825461225791906138b4565b92505081905550816002600083815260200190815260200160002060006101000a81548173ffffffffffffffffffffffffffffffffffffffff021916908373ffffffffffffffffffffffffffffffffffffffff160217905550808273ffffffffffffffffffffffffffffffffffffffff168473ffffffffffffffffffffffffffffffffffffffff167fddf252ad1be2c89b69c2b068fc378daa952ba7f163c4a11628f55a4df523b3ef60405160405180910390a46123168383836128d6565b505050565b6123b583838360405160240161233393929190613a5e565b6040516020818303038152906040527fe3849f79000000000000000000000000000000000000000000000000000000007bffffffffffffffffffffffffffffffffffffffffffffffffffffffff19166020820180517bffffffffffffffffffffffffffffffffffffffffffffffffffffffff838183161783525050505061283c565b505050565b612456848484846040516024016123d49493929190613a9c565b6040516020818303038152906040527f08ee5666000000000000000000000000000000000000000000000000000000007bffffffffffffffffffffffffffffffffffffffffffffffffffffffff19166020820180517bffffffffffffffffffffffffffffffffffffffffffffffffffffffff838183161783525050505061283c565b50505050565b6124f683838360405160240161247493929190613ae8565b6040516020818303038152906040527f969cdd03000000000000000000000000000000000000000000000000000000007bffffffffffffffffffffffffffffffffffffffffffffffffffffffff19166020820180517bffffffffffffffffffffffffffffffffffffffffffffffffffffffff838183161783525050505061283c565b505050565b8173ffffffffffffffffffffffffffffffffffffffff168373ffffffffffffffffffffffffffffffffffffffff16141561256a576040517f08c379a000000000000000000000000000000000000000000000000000000000815260040161256190613b72565b60405180910390fd5b80600560008573ffffffffffffffffffffffffffffffffffffffff1673ffffffffffffffffffffffffffffffffffffffff16815260200190815260200160002060008473ffffffffffffffffffffffffffffffffffffffff1673ffffffffffffffffffffffffffffffffffffffff16815260200190815260200160002060006101000a81548160ff0219169083151502179055508173ffffffffffffffffffffffffffffffffffffffff168373ffffffffffffffffffffffffffffffffffffffff167f17307eab39ab6107e8899845ad3d59bd9653f200f220920489ca2b5937696c318360405161265b9190612b98565b60405180910390a3505050565b6126738484846120b4565b61267f848484846128db565b6126be576040517f08c379a00000000000000000000000000000000000000000000000000000000081526004016126b590613c04565b60405180910390fd5b50505050565b606060405180602001604052806000815250905090565b60606000821415612723576040518060400160405280600181526020017f30000000000000000000000000000000000000000000000000000000000000008152509050612837565b600082905060005b6000821461275557808061273e906132df565b915050600a8261274e9190613c53565b915061272b565b60008167ffffffffffffffff81111561277157612770612f3d565b5b6040519080825280601f01601f1916602001820160405280156127a35781602001600182028036833780820191505090505b5090505b60008514612830576001826127bc919061344f565b9150600a856127cb9190613c84565b60306127d791906138b4565b60f81b8183815181106127ed576127ec6134ef565b5b60200101907effffffffffffffffffffffffffffffffffffffffffffffffffffffffffffff1916908160001a905350600a856128299190613c53565b94506127a7565b8093505050505b919050565b60008151905060006a636f6e736f6c652e6c6f679050602083016000808483855afa5050505050565b60008073ffffffffffffffffffffffffffffffffffffffff166002600084815260200190815260200160002060009054906101000a900473ffffffffffffffffffffffffffffffffffffffff1673ffffffffffffffffffffffffffffffffffffffff1614159050919050565b505050565b505050565b60006128fc8473ffffffffffffffffffffffffffffffffffffffff16612a72565b15612a65578373ffffffffffffffffffffffffffffffffffffffff1663150b7a02612925611ce8565b8786866040518563ffffffff1660e01b81526004016129479493929190613d0a565b602060405180830381600087803b15801561296157600080fd5b505af192505050801561299257506040513d601f19601f8201168201806040525081019061298f9190613d6b565b60015b612a15573d80600081146129c2576040519150601f19603f3d011682016040523d82523d6000602084013e6129c7565b606091505b50600081511415612a0d576040517f08c379a0000000000000000000000000000000000000000000000000000000008152600401612a0490613c04565b60405180910390fd5b805181602001fd5b63150b7a0260e01b7bffffffffffffffffffffffffffffffffffffffffffffffffffffffff1916817bffffffffffffffffffffffffffffffffffffffffffffffffffffffff191614915050612a6a565b600190505b949350505050565b6000808273ffffffffffffffffffffffffffffffffffffffff163b119050919050565b6000604051905090565b600080fd5b600080fd5b6000819050919050565b612abc81612aa9565b8114612ac757600080fd5b50565b600081359050612ad981612ab3565b92915050565b600073ffffffffffffffffffffffffffffffffffffffff82169050919050565b6000612b0a82612adf565b9050919050565b612b1a81612aff565b8114612b2557600080fd5b50565b600081359050612b3781612b11565b92915050565b60008060408385031215612b5457612b53612a9f565b5b6000612b6285828601612aca565b9250506020612b7385828601612b28565b9150509250929050565b60008115159050919050565b612b9281612b7d565b82525050565b6000602082019050612bad6000830184612b89565b92915050565b60007fffffffff0000000000000000000000000000000000000000000000000000000082169050919050565b612be881612bb3565b8114612bf357600080fd5b50565b600081359050612c0581612bdf565b92915050565b600060208284031215612c2157612c20612a9f565b5b6000612c2f84828501612bf6565b91505092915050565b600081519050919050565b600082825260208201905092915050565b60005b83811015612c72578082015181840152602081019050612c57565b83811115612c81576000848401525b50505050565b6000601f19601f8301169050919050565b6000612ca382612c38565b612cad8185612c43565b9350612cbd818560208601612c54565b612cc681612c87565b840191505092915050565b60006020820190508181036000830152612ceb8184612c98565b905092915050565b600060208284031215612d0957612d08612a9f565b5b6000612d1784828501612aca565b91505092915050565b612d2981612aff565b82525050565b6000602082019050612d446000830184612d20565b92915050565b60008060408385031215612d6157612d60612a9f565b5b6000612d6f85828601612b28565b9250506020612d8085828601612aca565b9150509250929050565b612d9381612aa9565b82525050565b6000602082019050612dae6000830184612d8a565b92915050565b600080600060608486031215612dcd57612dcc612a9f565b5b6000612ddb86828701612b28565b9350506020612dec86828701612b28565b9250506040612dfd86828701612aca565b9150509250925092565b60008060408385031215612e1e57612e1d612a9f565b5b6000612e2c85828601612aca565b9250506020612e3d85828601612aca565b9150509250929050565b600080600060608486031215612e6057612e5f612a9f565b5b6000612e6e86828701612aca565b9350506020612e7f86828701612aca565b9250506040612e9086828701612aca565b9150509250925092565b600060208284031215612eb057612eaf612a9f565b5b6000612ebe84828501612b28565b91505092915050565b612ed081612b7d565b8114612edb57600080fd5b50565b600081359050612eed81612ec7565b92915050565b60008060408385031215612f0a57612f09612a9f565b5b6000612f1885828601612b28565b9250506020612f2985828601612ede565b9150509250929050565b600080fd5b600080fd5b7f4e487b7100000000000000000000000000000000000000000000000000000000600052604160045260246000fd5b612f7582612c87565b810181811067ffffffffffffffff82111715612f9457612f93612f3d565b5b80604052505050565b6000612fa7612a95565b9050612fb38282612f6c565b919050565b600067ffffffffffffffff821115612fd357612fd2612f3d565b5b612fdc82612c87565b9050602081019050919050565b82818337600083830152505050565b600061300b61300684612fb8565b612f9d565b90508281526020810184848401111561302757613026612f38565b5b613032848285612fe9565b509392505050565b600082601f83011261304f5761304e612f33565b5b813561305f848260208601612ff8565b91505092915050565b6000806000806080858703121561308257613081612a9f565b5b600061309087828801612b28565b94505060206130a187828801612b28565b93505060406130b287828801612aca565b925050606085013567ffffffffffffffff8111156130d3576130d2612aa4565b5b6130df8782880161303a565b91505092959194509250565b6000806040838503121561310257613101612a9f565b5b600061311085828601612b28565b925050602061312185828601612b28565b9150509250929050565b7f4e487b7100000000000000000000000000000000000000000000000000000000600052602260045260246000fd5b6000600282049050600182168061317257607f821691505b602082108114156131865761318561312b565b5b50919050565b7f4552433732313a20617070726f76616c20746f2063757272656e74206f776e6560008201527f7200000000000000000000000000000000000000000000000000000000000000602082015250565b60006131e8602183612c43565b91506131f38261318c565b604082019050919050565b60006020820190508181036000830152613217816131db565b9050919050565b7f4552433732313a20617070726f76652063616c6c6572206973206e6f7420746f60008201527f6b656e206f776e6572206e6f7220617070726f76656420666f7220616c6c0000602082015250565b600061327a603e83612c43565b91506132858261321e565b604082019050919050565b600060208201905081810360008301526132a98161326d565b9050919050565b7f4e487b7100000000000000000000000000000000000000000000000000000000600052601160045260246000fd5b60006132ea82612aa9565b91507fffffffffffffffffffffffffffffffffffffffffffffffffffffffffffffffff82141561331d5761331c6132b0565b5b600182019050919050565b7f4552433732313a2063616c6c6572206973206e6f7420746f6b656e206f776e6560008201527f72206e6f7220617070726f766564000000000000000000000000000000000000602082015250565b6000613384602e83612c43565b915061338f82613328565b604082019050919050565b600060208201905081810360008301526133b381613377565b9050919050565b7f556e617574686f72697a65640000000000000000000000000000000000000000600082015250565b60006133f0600c83612c43565b91506133fb826133ba565b602082019050919050565b6000602082019050818103600083015261341f816133e3565b9050919050565b600060408201905061343b6000830185612d8a565b6134486020830184612d8a565b9392505050565b600061345a82612aa9565b915061346583612aa9565b925082821015613478576134776132b0565b5b828203905092915050565b7f4552433732313a20696e76616c696420746f6b656e2049440000000000000000600082015250565b60006134b9601883612c43565b91506134c482613483565b602082019050919050565b600060208201905081810360008301526134e8816134ac565b9050919050565b7f4e487b7100000000000000000000000000000000000000000000000000000000600052603260045260246000fd5b7f496e76616c696420646f63756d656e7400000000000000000000000000000000600082015250565b6000613554601083612c43565b915061355f8261351e565b602082019050919050565b6000602082019050818103600083015261358381613547565b9050919050565b7f4e487b7100000000000000000000000000000000000000000000000000000000600052603160045260246000fd5b7f4552433732313a2061646472657373207a65726f206973206e6f74206120766160008201527f6c6964206f776e65720000000000000000000000000000000000000000000000602082015250565b6000613615602983612c43565b9150613620826135b9565b604082019050919050565b6000602082019050818103600083015261364481613608565b9050919050565b7f4e6f74207369676e657200000000000000000000000000000000000000000000600082015250565b6000613681600a83612c43565b915061368c8261364b565b602082019050919050565b600060208201905081810360008301526136b081613674565b9050919050565b7f496e76616c69642076657273696f6e0000000000000000000000000000000000600082015250565b60006136ed600f83612c43565b91506136f8826136b7565b602082019050919050565b6000602082019050818103600083015261371c816136e0565b9050919050565b60006040820190506137386000830185612d8a565b6137456020830184612b89565b9392505050565b600081905092915050565b600061376282612c38565b61376c818561374c565b935061377c818560208601612c54565b80840191505092915050565b60006137948285613757565b91506137a08284613757565b91508190509392505050565b600060408201905081810360008301526137c68185612c98565b90506137d56020830184612d20565b9392505050565b7f4552433732313a206d696e7420746f20746865207a65726f2061646472657373600082015250565b6000613812602083612c43565b915061381d826137dc565b602082019050919050565b6000602082019050818103600083015261384181613805565b9050919050565b7f4552433732313a20746f6b656e20616c7265616479206d696e74656400000000600082015250565b600061387e601c83612c43565b915061388982613848565b602082019050919050565b600060208201905081810360008301526138ad81613871565b9050919050565b60006138bf82612aa9565b91506138ca83612aa9565b9250827fffffffffffffffffffffffffffffffffffffffffffffffffffffffffffffffff038211156138ff576138fe6132b0565b5b828201905092915050565b600060408201905081810360008301526139248185612c98565b90506139336020830184612d8a565b9392505050565b7f4552433732313a207472616e736665722066726f6d20696e636f72726563742060008201527f6f776e6572000000000000000000000000000000000000000000000000000000602082015250565b6000613996602583612c43565b91506139a18261393a565b604082019050919050565b600060208201905081810360008301526139c581613989565b9050919050565b7f4552433732313a207472616e7366657220746f20746865207a65726f2061646460008201527f7265737300000000000000000000000000000000000000000000000000000000602082015250565b6000613a28602483612c43565b9150613a33826139cc565b604082019050919050565b60006020820190508181036000830152613a5781613a1b565b9050919050565b60006060820190508181036000830152613a788186612c98565b9050613a876020830185612d8a565b613a946040830184612d20565b949350505050565b60006080820190508181036000830152613ab68187612c98565b9050613ac56020830186612d8a565b613ad26040830185612d8a565b613adf6060830184612d8a565b95945050505050565b60006060820190508181036000830152613b028186612c98565b9050613b116020830185612d8a565b613b1e6040830184612d8a565b949350505050565b7f4552433732313a20617070726f766520746f2063616c6c657200000000000000600082015250565b6000613b5c601983612c43565b9150613b6782613b26565b602082019050919050565b60006020820190508181036000830152613b8b81613b4f565b9050919050565b7f4552433732313a207472616e7366657220746f206e6f6e20455243373231526560008201527f63656976657220696d706c656d656e7465720000000000000000000000000000602082015250565b6000613bee603283612c43565b9150613bf982613b92565b604082019050919050565b60006020820190508181036000830152613c1d81613be1565b9050919050565b7f4e487b7100000000000000000000000000000000000000000000000000000000600052601260045260246000fd5b6000613c5e82612aa9565b9150613c6983612aa9565b925082613c7957613c78613c24565b5b828204905092915050565b6000613c8f82612aa9565b9150613c9a83612aa9565b925082613caa57613ca9613c24565b5b828206905092915050565b600081519050919050565b600082825260208201905092915050565b6000613cdc82613cb5565b613ce68185613cc0565b9350613cf6818560208601612c54565b613cff81612c87565b840191505092915050565b6000608082019050613d1f6000830187612d20565b613d2c6020830186612d20565b613d396040830185612d8a565b8181036060830152613d4b8184613cd1565b905095945050505050565b600081519050613d6581612bdf565b92915050565b600060208284031215613d8157613d80612a9f565b5b6000613d8f84828501613d56565b9150509291505056fea26469706673582212209274a3e98f14ecead350a2b0f75344aea633dfe5b19298a6a889c7d2ddbbf9d764736f6c63430008090033",
  "linkReferences": {},
  "deployedLinkReferences": {}
}